{
  "_format": "hh-sol-artifact-1",
  "contractName": "DragoGame",
  "sourceName": "contracts/DragoGame.sol",
  "abi": [
    {
      "inputs": [],
      "stateMutability": "nonpayable",
      "type": "constructor"
    },
    {
      "inputs": [
        {
          "internalType": "address",
          "name": "owner",
          "type": "address"
        }
      ],
      "name": "OwnableInvalidOwner",
      "type": "error"
    },
    {
      "inputs": [
        {
          "internalType": "address",
          "name": "account",
          "type": "address"
        }
      ],
      "name": "OwnableUnauthorizedAccount",
      "type": "error"
    },
    {
      "inputs": [],
      "name": "ReentrancyGuardReentrantCall",
      "type": "error"
    },
    {
      "anonymous": false,
      "inputs": [
        {
          "indexed": false,
          "internalType": "address",
          "name": "highestScorer",
          "type": "address"
        },
        {
          "indexed": false,
          "internalType": "uint256",
          "name": "highestScore",
          "type": "uint256"
        }
      ],
      "name": "EventClosedByAdmin",
      "type": "event"
    },
    {
      "anonymous": false,
      "inputs": [
        {
          "indexed": false,
          "internalType": "address",
          "name": "winner",
          "type": "address"
        },
        {
          "indexed": false,
          "internalType": "uint256",
          "name": "winningScore",
          "type": "uint256"
        }
      ],
      "name": "EventEnded",
      "type": "event"
    },
    {
      "anonymous": false,
      "inputs": [
        {
          "indexed": false,
          "internalType": "uint256",
          "name": "startTime",
          "type": "uint256"
        }
      ],
      "name": "GameStarted",
      "type": "event"
    },
    {
      "anonymous": false,
      "inputs": [
        {
          "indexed": false,
          "internalType": "address",
          "name": "player",
          "type": "address"
        },
        {
          "indexed": false,
          "internalType": "uint256",
          "name": "score",
          "type": "uint256"
        }
      ],
      "name": "NewHighScore",
      "type": "event"
    },
    {
      "anonymous": false,
      "inputs": [
        {
          "indexed": true,
          "internalType": "address",
          "name": "previousOwner",
          "type": "address"
        },
        {
          "indexed": true,
          "internalType": "address",
          "name": "newOwner",
          "type": "address"
        }
      ],
      "name": "OwnershipTransferred",
      "type": "event"
    },
    {
      "anonymous": false,
      "inputs": [
        {
          "indexed": false,
          "internalType": "address",
          "name": "player",
          "type": "address"
        }
      ],
      "name": "PlayerJoined",
      "type": "event"
    },
    {
      "inputs": [],
      "name": "ENTRY_FEE",
      "outputs": [
        {
          "internalType": "uint256",
          "name": "",
          "type": "uint256"
        }
      ],
      "stateMutability": "view",
      "type": "function"
    },
    {
      "inputs": [],
      "name": "EVENT_DURATION",
      "outputs": [
        {
          "internalType": "uint256",
          "name": "",
          "type": "uint256"
        }
      ],
      "stateMutability": "view",
      "type": "function"
    },
    {
      "inputs": [],
      "name": "MAX_PLAYERS",
      "outputs": [
        {
          "internalType": "uint256",
          "name": "",
          "type": "uint256"
        }
      ],
      "stateMutability": "view",
      "type": "function"
    },
    {
      "inputs": [],
      "name": "PRIZE",
      "outputs": [
        {
          "internalType": "uint256",
          "name": "",
          "type": "uint256"
        }
      ],
      "stateMutability": "view",
      "type": "function"
    },
    {
      "inputs": [],
      "name": "adminCloseEvent",
      "outputs": [],
      "stateMutability": "nonpayable",
      "type": "function"
    },
    {
      "inputs": [],
      "name": "currentEvent",
      "outputs": [
        {
          "internalType": "uint256",
          "name": "startTime",
          "type": "uint256"
        },
        {
          "internalType": "uint256",
          "name": "highestScore",
          "type": "uint256"
        },
        {
          "internalType": "address",
          "name": "highestScorer",
          "type": "address"
        },
        {
          "internalType": "uint256",
          "name": "playerCount",
          "type": "uint256"
        },
        {
          "internalType": "uint256",
          "name": "submittedScores",
          "type": "uint256"
        }
      ],
      "stateMutability": "view",
      "type": "function"
    },
    {
      "inputs": [],
      "name": "endEventAndClaimPrize",
      "outputs": [],
      "stateMutability": "nonpayable",
      "type": "function"
    },
    {
      "inputs": [],
      "name": "eventActive",
      "outputs": [
        {
          "internalType": "bool",
          "name": "",
          "type": "bool"
        }
      ],
      "stateMutability": "view",
      "type": "function"
    },
    {
      "inputs": [],
      "name": "getCurrentEventDetails",
      "outputs": [
        {
          "internalType": "uint256",
          "name": "startTime",
          "type": "uint256"
        },
        {
          "internalType": "uint256",
          "name": "highestScore",
          "type": "uint256"
        },
        {
          "internalType": "address",
          "name": "highestScorer",
          "type": "address"
        },
        {
          "internalType": "uint256",
          "name": "playerCount",
          "type": "uint256"
        },
        {
          "internalType": "uint256",
          "name": "submittedScores",
          "type": "uint256"
        }
      ],
      "stateMutability": "view",
      "type": "function"
    },
    {
      "inputs": [],
      "name": "joinGame",
      "outputs": [],
      "stateMutability": "payable",
      "type": "function"
    },
    {
      "inputs": [],
      "name": "owner",
      "outputs": [
        {
          "internalType": "address",
          "name": "",
          "type": "address"
        }
      ],
      "stateMutability": "view",
      "type": "function"
    },
    {
      "inputs": [],
      "name": "renounceOwnership",
      "outputs": [],
      "stateMutability": "nonpayable",
      "type": "function"
    },
    {
      "inputs": [],
      "name": "startGame",
      "outputs": [],
      "stateMutability": "payable",
      "type": "function"
    },
    {
      "inputs": [
        {
          "internalType": "uint256",
          "name": "score",
          "type": "uint256"
        }
      ],
      "name": "submitScore",
      "outputs": [],
      "stateMutability": "nonpayable",
      "type": "function"
    },
    {
      "inputs": [
        {
          "internalType": "address",
          "name": "newOwner",
          "type": "address"
        }
      ],
      "name": "transferOwnership",
      "outputs": [],
      "stateMutability": "nonpayable",
      "type": "function"
    },
    {
      "inputs": [],
      "name": "withdrawFees",
      "outputs": [],
      "stateMutability": "nonpayable",
      "type": "function"
    }
  ],
  "bytecode": "0x608060405234801561001057600080fd5b50336001600081905550600073ffffffffffffffffffffffffffffffffffffffff168173ffffffffffffffffffffffffffffffffffffffff160361008c5760006040517f1e4fbdf700000000000000000000000000000000000000000000000000000000815260040161008391906101a8565b60405180910390fd5b61009b816100a160201b60201c565b506101c3565b6000600160009054906101000a900473ffffffffffffffffffffffffffffffffffffffff16905081600160006101000a81548173ffffffffffffffffffffffffffffffffffffffff021916908373ffffffffffffffffffffffffffffffffffffffff1602179055508173ffffffffffffffffffffffffffffffffffffffff168173ffffffffffffffffffffffffffffffffffffffff167f8be0079c531659141344cd1fd0a4f28419497f9722a3daafe3b4186f6b6457e060405160405180910390a35050565b600073ffffffffffffffffffffffffffffffffffffffff82169050919050565b600061019282610167565b9050919050565b6101a281610187565b82525050565b60006020820190506101bd6000830184610199565b92915050565b611741806101d26000396000f3fe6080604052600436106100f35760003560e01c8063ad10cf5c1161008a578063d4f77b1c11610059578063d4f77b1c146102b2578063d65ab5f2146102bc578063f2fde38b146102c6578063f6d361cc146102ef576100f3565b8063ad10cf5c14610230578063aff0b29714610247578063c05390f614610270578063d1b2fae81461029b576100f3565b8063715018a6116100c6578063715018a614610194578063831e6ed4146101ab5780638da5cb5b146101d6578063934b616114610201576100f3565b80634315990b146100f85780634411b3eb14610123578063476343ee1461014e57806350750f2514610165575b600080fd5b34801561010457600080fd5b5061010d61031a565b60405161011a919061107d565b60405180910390f35b34801561012f57600080fd5b50610138610320565b604051610145919061107d565b60405180910390f35b34801561015a57600080fd5b50610163610325565b005b34801561017157600080fd5b5061017a610383565b60405161018b9594939291906110d9565b60405180910390f35b3480156101a057600080fd5b506101a96103c7565b005b3480156101b757600080fd5b506101c06103db565b6040516101cd9190611147565b60405180910390f35b3480156101e257600080fd5b506101eb6103ee565b6040516101f89190611162565b60405180910390f35b34801561020d57600080fd5b50610216610418565b6040516102279594939291906110d9565b60405180910390f35b34801561023c57600080fd5b5061024561046e565b005b34801561025357600080fd5b5061026e600480360381019061026991906111ae565b610590565b005b34801561027c57600080fd5b50610285610813565b604051610292919061107d565b60405180910390f35b3480156102a757600080fd5b506102b061081e565b005b6102ba610a9d565b005b6102c4610c8d565b005b3480156102d257600080fd5b506102ed60048036038101906102e89190611207565b610e2e565b005b3480156102fb57600080fd5b50610304610eb4565b604051610311919061107d565b60405180910390f35b61038481565b600381565b61032d610ebf565b600047905061033a6103ee565b73ffffffffffffffffffffffffffffffffffffffff166108fc829081150290604051600060405180830381858888f1935050505015801561037f573d6000803e3d6000fd5b5050565b60028060000154908060010154908060020160009054906101000a900473ffffffffffffffffffffffffffffffffffffffff16908060030154908060040154905085565b6103cf610ebf565b6103d96000610f46565b565b600960009054906101000a900460ff1681565b6000600160009054906101000a900473ffffffffffffffffffffffffffffffffffffffff16905090565b60008060008060006002600001546002600101546002800160009054906101000a900473ffffffffffffffffffffffffffffffffffffffff16600260030154600260040154945094509450945094509091929394565b610476610ebf565b600960009054906101000a900460ff166104c5576040517f08c379a00000000000000000000000000000000000000000000000000000000081526004016104bc90611291565b60405180910390fd5b6000600960006101000a81548160ff0219169083151502179055507f4b5bb8486f992c5252b41928b6376dcb9e0d60cd43dad006b58c5f59794ee90d6002800160009054906101000a900473ffffffffffffffffffffffffffffffffffffffff1660026001015460405161053a9291906112b1565b60405180910390a1600260008082016000905560018201600090556002820160006101000a81549073ffffffffffffffffffffffffffffffffffffffff0219169055600382016000905560048201600090555050565b61059861100c565b600960009054906101000a900460ff166105e7576040517f08c379a00000000000000000000000000000000000000000000000000000000081526004016105de90611326565b60405180910390fd5b600260060160003373ffffffffffffffffffffffffffffffffffffffff1673ffffffffffffffffffffffffffffffffffffffff16815260200190815260200160002054600260050160003373ffffffffffffffffffffffffffffffffffffffff1673ffffffffffffffffffffffffffffffffffffffff16815260200190815260200160002054116106ad576040517f08c379a00000000000000000000000000000000000000000000000000000000081526004016106a490611392565b60405180910390fd5b6103846002600001546106c091906113e1565b4210610701576040517f08c379a00000000000000000000000000000000000000000000000000000000081526004016106f890611461565b60405180910390fd5b600260060160003373ffffffffffffffffffffffffffffffffffffffff1673ffffffffffffffffffffffffffffffffffffffff168152602001908152602001600020600081548092919061075490611481565b91905055506002600401600081548092919061076f90611481565b91905055506002600101548111156108085780600260010181905550336002800160006101000a81548173ffffffffffffffffffffffffffffffffffffffff021916908373ffffffffffffffffffffffffffffffffffffffff1602179055507fe265ae360c48dc3c258727b698cc5a994da69b0d32354166f39003a48891944333826040516107ff9291906112b1565b60405180910390a15b610810611052565b50565b66470de4df82000081565b61082661100c565b600960009054906101000a900460ff16610875576040517f08c379a000000000000000000000000000000000000000000000000000000000815260040161086c90611326565b60405180910390fd5b61038460026000015461088891906113e1565b4210158061089f5750600260030154600260040154145b6108de576040517f08c379a00000000000000000000000000000000000000000000000000000000081526004016108d590611515565b60405180910390fd5b6002800160009054906101000a900473ffffffffffffffffffffffffffffffffffffffff1673ffffffffffffffffffffffffffffffffffffffff163373ffffffffffffffffffffffffffffffffffffffff1614610970576040517f08c379a0000000000000000000000000000000000000000000000000000000008152600401610967906115a7565b60405180910390fd5b6000600960006101000a81548160ff02191690831515021790555060006002800160009054906101000a900473ffffffffffffffffffffffffffffffffffffffff169050600060026001015490508173ffffffffffffffffffffffffffffffffffffffff166108fc66470de4df8200009081150290604051600060405180830381858888f19350505050158015610a0b573d6000803e3d6000fd5b507f6f45a19e8850c727d0de9f32e0d8691324a9a74ffb4347652e6404138b1d81658282604051610a3d9291906112b1565b60405180910390a1600260008082016000905560018201600090556002820160006101000a81549073ffffffffffffffffffffffffffffffffffffffff02191690556003820160009055600482016000905550505050610a9b611052565b565b610aa561100c565b600960009054906101000a900460ff16610af4576040517f08c379a0000000000000000000000000000000000000000000000000000000008152600401610aeb90611326565b60405180910390fd5b662386f26fc100003414610b3d576040517f08c379a0000000000000000000000000000000000000000000000000000000008152600401610b3490611613565b60405180910390fd5b600360026003015410610b85576040517f08c379a0000000000000000000000000000000000000000000000000000000008152600401610b7c9061167f565b60405180910390fd5b610384600260000154610b9891906113e1565b4210610bd9576040517f08c379a0000000000000000000000000000000000000000000000000000000008152600401610bd090611461565b60405180910390fd5b60026003016000815480929190610bef90611481565b9190505550600260050160003373ffffffffffffffffffffffffffffffffffffffff1673ffffffffffffffffffffffffffffffffffffffff1681526020019081526020016000206000815480929190610c4790611481565b91905055507f31e760aa525306aba638a784082a013b6a1cc0a9a1789f3f22281c0453b10b1f33604051610c7b9190611162565b60405180910390a1610c8b611052565b565b610c9561100c565b600960009054906101000a900460ff1615610ce5576040517f08c379a0000000000000000000000000000000000000000000000000000000008152600401610cdc906116eb565b60405180910390fd5b662386f26fc100003414610d2e576040517f08c379a0000000000000000000000000000000000000000000000000000000008152600401610d2590611613565b60405180910390fd5b6001600960006101000a81548160ff02191690831515021790555042600260000181905550600160026003018190555060006002600401819055506001600260050160003373ffffffffffffffffffffffffffffffffffffffff1673ffffffffffffffffffffffffffffffffffffffff168152602001908152602001600020819055507f50ad08f58a27f2851d7e3a1b3a6a46b290f2ce677e99642d30ff639721e77790600260000154604051610de5919061107d565b60405180910390a17f31e760aa525306aba638a784082a013b6a1cc0a9a1789f3f22281c0453b10b1f33604051610e1c9190611162565b60405180910390a1610e2c611052565b565b610e36610ebf565b600073ffffffffffffffffffffffffffffffffffffffff168173ffffffffffffffffffffffffffffffffffffffff1603610ea85760006040517f1e4fbdf7000000000000000000000000000000000000000000000000000000008152600401610e9f9190611162565b60405180910390fd5b610eb181610f46565b50565b662386f26fc1000081565b610ec761105c565b73ffffffffffffffffffffffffffffffffffffffff16610ee56103ee565b73ffffffffffffffffffffffffffffffffffffffff1614610f4457610f0861105c565b6040517f118cdaa7000000000000000000000000000000000000000000000000000000008152600401610f3b9190611162565b60405180910390fd5b565b6000600160009054906101000a900473ffffffffffffffffffffffffffffffffffffffff16905081600160006101000a81548173ffffffffffffffffffffffffffffffffffffffff021916908373ffffffffffffffffffffffffffffffffffffffff1602179055508173ffffffffffffffffffffffffffffffffffffffff168173ffffffffffffffffffffffffffffffffffffffff167f8be0079c531659141344cd1fd0a4f28419497f9722a3daafe3b4186f6b6457e060405160405180910390a35050565b600260005403611048576040517f3ee5aeb500000000000000000000000000000000000000000000000000000000815260040160405180910390fd5b6002600081905550565b6001600081905550565b600033905090565b6000819050919050565b61107781611064565b82525050565b6000602082019050611092600083018461106e565b92915050565b600073ffffffffffffffffffffffffffffffffffffffff82169050919050565b60006110c382611098565b9050919050565b6110d3816110b8565b82525050565b600060a0820190506110ee600083018861106e565b6110fb602083018761106e565b61110860408301866110ca565b611115606083018561106e565b611122608083018461106e565b9695505050505050565b60008115159050919050565b6111418161112c565b82525050565b600060208201905061115c6000830184611138565b92915050565b600060208201905061117760008301846110ca565b92915050565b600080fd5b61118b81611064565b811461119657600080fd5b50565b6000813590506111a881611182565b92915050565b6000602082840312156111c4576111c361117d565b5b60006111d284828501611199565b91505092915050565b6111e4816110b8565b81146111ef57600080fd5b50565b600081359050611201816111db565b92915050565b60006020828403121561121d5761121c61117d565b5b600061122b848285016111f2565b91505092915050565b600082825260208201905092915050565b7f4e6f20616374697665206576656e7420746f20636c6f73650000000000000000600082015250565b600061127b601883611234565b915061128682611245565b602082019050919050565b600060208201905081810360008301526112aa8161126e565b9050919050565b60006040820190506112c660008301856110ca565b6112d3602083018461106e565b9392505050565b7f4e6f20616374697665206576656e740000000000000000000000000000000000600082015250565b6000611310600f83611234565b915061131b826112da565b602082019050919050565b6000602082019050818103600083015261133f81611303565b9050919050565b7f4e6f206d6f72652073636f72657320746f207375626d69740000000000000000600082015250565b600061137c601883611234565b915061138782611346565b602082019050919050565b600060208201905081810360008301526113ab8161136f565b9050919050565b7f4e487b7100000000000000000000000000000000000000000000000000000000600052601160045260246000fd5b60006113ec82611064565b91506113f783611064565b925082820190508082111561140f5761140e6113b2565b5b92915050565b7f4576656e742068617320656e6465640000000000000000000000000000000000600082015250565b600061144b600f83611234565b915061145682611415565b602082019050919050565b6000602082019050818103600083015261147a8161143e565b9050919050565b600061148c82611064565b91507fffffffffffffffffffffffffffffffffffffffffffffffffffffffffffffffff82036114be576114bd6113b2565b5b600182019050919050565b7f4576656e74206e6f7420726561647920746f20656e6400000000000000000000600082015250565b60006114ff601683611234565b915061150a826114c9565b602082019050919050565b6000602082019050818103600083015261152e816114f2565b9050919050565b7f4f6e6c7920686967686573742073636f7265722063616e20656e64207468652060008201527f6576656e74000000000000000000000000000000000000000000000000000000602082015250565b6000611591602583611234565b915061159c82611535565b604082019050919050565b600060208201905081810360008301526115c081611584565b9050919050565b7f496e636f727265637420656e7472792066656500000000000000000000000000600082015250565b60006115fd601383611234565b9150611608826115c7565b602082019050919050565b6000602082019050818103600083015261162c816115f0565b9050919050565b7f4576656e742069732066756c6c00000000000000000000000000000000000000600082015250565b6000611669600d83611234565b915061167482611633565b602082019050919050565b600060208201905081810360008301526116988161165c565b9050919050565b7f416e206576656e7420697320616c726561647920616374697665000000000000600082015250565b60006116d5601a83611234565b91506116e08261169f565b602082019050919050565b60006020820190508181036000830152611704816116c8565b905091905056fea26469706673582212209a7f02f7e90b284d5dc0e37a0a54b3bfb1219d136822592b54d138e2f3080b2e64736f6c634300081a0033",
  "linkReferences": {},
  "deployedLinkReferences": {}
}