{
  "_format": "hh-sol-artifact-1",
  "contractName": "DragoGame",
  "sourceName": "contracts/DragoGame.sol",
  "abi": [
    {
      "inputs": [],
      "stateMutability": "nonpayable",
      "type": "constructor"
    },
    {
      "inputs": [
        {
          "internalType": "address",
          "name": "owner",
          "type": "address"
        }
      ],
      "name": "OwnableInvalidOwner",
      "type": "error"
    },
    {
      "inputs": [
        {
          "internalType": "address",
          "name": "account",
          "type": "address"
        }
      ],
      "name": "OwnableUnauthorizedAccount",
      "type": "error"
    },
    {
      "inputs": [],
      "name": "ReentrancyGuardReentrantCall",
      "type": "error"
    },
    {
      "anonymous": false,
      "inputs": [
        {
          "indexed": false,
          "internalType": "address",
          "name": "highestScorer",
          "type": "address"
        },
        {
          "indexed": false,
          "internalType": "uint256",
          "name": "highestScore",
          "type": "uint256"
        }
      ],
      "name": "EventClosedByAdmin",
      "type": "event"
    },
    {
      "anonymous": false,
      "inputs": [
        {
          "indexed": false,
          "internalType": "address",
          "name": "winner",
          "type": "address"
        },
        {
          "indexed": false,
          "internalType": "uint256",
          "name": "winningScore",
          "type": "uint256"
        }
      ],
      "name": "EventEnded",
      "type": "event"
    },
    {
      "anonymous": false,
      "inputs": [
        {
          "indexed": false,
          "internalType": "uint256",
          "name": "startTime",
          "type": "uint256"
        }
      ],
      "name": "GameStarted",
      "type": "event"
    },
    {
      "anonymous": false,
      "inputs": [
        {
          "indexed": false,
          "internalType": "address",
          "name": "player",
          "type": "address"
        },
        {
          "indexed": false,
          "internalType": "uint256",
          "name": "score",
          "type": "uint256"
        }
      ],
      "name": "NewHighScore",
      "type": "event"
    },
    {
      "anonymous": false,
      "inputs": [
        {
          "indexed": true,
          "internalType": "address",
          "name": "previousOwner",
          "type": "address"
        },
        {
          "indexed": true,
          "internalType": "address",
          "name": "newOwner",
          "type": "address"
        }
      ],
      "name": "OwnershipTransferred",
      "type": "event"
    },
    {
      "anonymous": false,
      "inputs": [
        {
          "indexed": false,
          "internalType": "address",
          "name": "player",
          "type": "address"
        }
      ],
      "name": "PlayerJoined",
      "type": "event"
    },
    {
      "anonymous": false,
      "inputs": [
        {
          "indexed": false,
          "internalType": "address",
          "name": "player",
          "type": "address"
        },
        {
          "indexed": false,
          "internalType": "uint256",
          "name": "score",
          "type": "uint256"
        }
      ],
      "name": "ScoreSubmitted",
      "type": "event"
    },
    {
      "inputs": [],
      "name": "ENTRY_FEE",
      "outputs": [
        {
          "internalType": "uint256",
          "name": "",
          "type": "uint256"
        }
      ],
      "stateMutability": "view",
      "type": "function"
    },
    {
      "inputs": [],
      "name": "EVENT_DURATION",
      "outputs": [
        {
          "internalType": "uint256",
          "name": "",
          "type": "uint256"
        }
      ],
      "stateMutability": "view",
      "type": "function"
    },
    {
      "inputs": [],
      "name": "MAX_PLAYERS",
      "outputs": [
        {
          "internalType": "uint256",
          "name": "",
          "type": "uint256"
        }
      ],
      "stateMutability": "view",
      "type": "function"
    },
    {
      "inputs": [],
      "name": "PRIZE",
      "outputs": [
        {
          "internalType": "uint256",
          "name": "",
          "type": "uint256"
        }
      ],
      "stateMutability": "view",
      "type": "function"
    },
    {
      "inputs": [],
      "name": "adminCloseEvent",
      "outputs": [],
      "stateMutability": "nonpayable",
      "type": "function"
    },
    {
      "inputs": [],
      "name": "currentEvent",
      "outputs": [
        {
          "internalType": "uint256",
          "name": "startTime",
          "type": "uint256"
        },
        {
          "internalType": "uint256",
          "name": "highestScore",
          "type": "uint256"
        },
        {
          "internalType": "address",
          "name": "highestScorer",
          "type": "address"
        },
        {
          "internalType": "uint256",
          "name": "playerCount",
          "type": "uint256"
        },
        {
          "internalType": "uint256",
          "name": "submittedScores",
          "type": "uint256"
        }
      ],
      "stateMutability": "view",
      "type": "function"
    },
    {
      "inputs": [],
      "name": "endEventAndClaimPrize",
      "outputs": [],
      "stateMutability": "nonpayable",
      "type": "function"
    },
    {
      "inputs": [],
      "name": "eventActive",
      "outputs": [
        {
          "internalType": "bool",
          "name": "",
          "type": "bool"
        }
      ],
      "stateMutability": "view",
      "type": "function"
    },
    {
      "inputs": [],
      "name": "getCurrentEventDetails",
      "outputs": [
        {
          "internalType": "uint256",
          "name": "startTime",
          "type": "uint256"
        },
        {
          "internalType": "uint256",
          "name": "highestScore",
          "type": "uint256"
        },
        {
          "internalType": "address",
          "name": "highestScorer",
          "type": "address"
        },
        {
          "internalType": "uint256",
          "name": "playerCount",
          "type": "uint256"
        },
        {
          "internalType": "uint256",
          "name": "submittedScores",
          "type": "uint256"
        }
      ],
      "stateMutability": "view",
      "type": "function"
    },
    {
      "inputs": [],
      "name": "joinGame",
      "outputs": [],
      "stateMutability": "payable",
      "type": "function"
    },
    {
      "inputs": [],
      "name": "owner",
      "outputs": [
        {
          "internalType": "address",
          "name": "",
          "type": "address"
        }
      ],
      "stateMutability": "view",
      "type": "function"
    },
    {
      "inputs": [],
      "name": "renounceOwnership",
      "outputs": [],
      "stateMutability": "nonpayable",
      "type": "function"
    },
    {
      "inputs": [],
      "name": "startGame",
      "outputs": [],
      "stateMutability": "payable",
      "type": "function"
    },
    {
      "inputs": [
        {
          "internalType": "uint256",
          "name": "score",
          "type": "uint256"
        }
      ],
      "name": "submitScore",
      "outputs": [],
      "stateMutability": "nonpayable",
      "type": "function"
    },
    {
      "inputs": [
        {
          "internalType": "address",
          "name": "newOwner",
          "type": "address"
        }
      ],
      "name": "transferOwnership",
      "outputs": [],
      "stateMutability": "nonpayable",
      "type": "function"
    },
    {
      "inputs": [],
      "name": "withdrawFees",
      "outputs": [],
      "stateMutability": "nonpayable",
      "type": "function"
    }
  ],
  "bytecode": "0x608060405234801561001057600080fd5b50336001600081905550600073ffffffffffffffffffffffffffffffffffffffff168173ffffffffffffffffffffffffffffffffffffffff160361008c5760006040517f1e4fbdf700000000000000000000000000000000000000000000000000000000815260040161008391906101a8565b60405180910390fd5b61009b816100a160201b60201c565b506101c3565b6000600160009054906101000a900473ffffffffffffffffffffffffffffffffffffffff16905081600160006101000a81548173ffffffffffffffffffffffffffffffffffffffff021916908373ffffffffffffffffffffffffffffffffffffffff1602179055508173ffffffffffffffffffffffffffffffffffffffff168173ffffffffffffffffffffffffffffffffffffffff167f8be0079c531659141344cd1fd0a4f28419497f9722a3daafe3b4186f6b6457e060405160405180910390a35050565b600073ffffffffffffffffffffffffffffffffffffffff82169050919050565b600061019282610167565b9050919050565b6101a281610187565b82525050565b60006020820190506101bd6000830184610199565b92915050565b61174c806101d26000396000f3fe6080604052600436106100f35760003560e01c8063ad10cf5c1161008a578063d4f77b1c11610059578063d4f77b1c146102b2578063d65ab5f2146102bc578063f2fde38b146102c6578063f6d361cc146102ef576100f3565b8063ad10cf5c14610230578063aff0b29714610247578063c05390f614610270578063d1b2fae81461029b576100f3565b8063715018a6116100c6578063715018a614610194578063831e6ed4146101ab5780638da5cb5b146101d6578063934b616114610201576100f3565b80634315990b146100f85780634411b3eb14610123578063476343ee1461014e57806350750f2514610165575b600080fd5b34801561010457600080fd5b5061010d61031a565b60405161011a9190611062565b60405180910390f35b34801561012f57600080fd5b50610138610320565b6040516101459190611062565b60405180910390f35b34801561015a57600080fd5b50610163610325565b005b34801561017157600080fd5b5061017a610383565b60405161018b9594939291906110be565b60405180910390f35b3480156101a057600080fd5b506101a96103c7565b005b3480156101b757600080fd5b506101c06103db565b6040516101cd919061112c565b60405180910390f35b3480156101e257600080fd5b506101eb6103ee565b6040516101f89190611147565b60405180910390f35b34801561020d57600080fd5b50610216610418565b6040516102279594939291906110be565b60405180910390f35b34801561023c57600080fd5b5061024561046e565b005b34801561025357600080fd5b5061026e60048036038101906102699190611193565b610590565b005b34801561027c57600080fd5b506102856107f8565b6040516102929190611062565b60405180910390f35b3480156102a757600080fd5b506102b0610803565b005b6102ba610a82565b005b6102c4610c72565b005b3480156102d257600080fd5b506102ed60048036038101906102e891906111ec565b610e13565b005b3480156102fb57600080fd5b50610304610e99565b6040516103119190611062565b60405180910390f35b61038481565b600381565b61032d610ea4565b600047905061033a6103ee565b73ffffffffffffffffffffffffffffffffffffffff166108fc829081150290604051600060405180830381858888f1935050505015801561037f573d6000803e3d6000fd5b5050565b60028060000154908060010154908060020160009054906101000a900473ffffffffffffffffffffffffffffffffffffffff16908060030154908060040154905085565b6103cf610ea4565b6103d96000610f2b565b565b600960009054906101000a900460ff1681565b6000600160009054906101000a900473ffffffffffffffffffffffffffffffffffffffff16905090565b60008060008060006002600001546002600101546002800160009054906101000a900473ffffffffffffffffffffffffffffffffffffffff16600260030154600260040154945094509450945094509091929394565b610476610ea4565b600960009054906101000a900460ff166104c5576040517f08c379a00000000000000000000000000000000000000000000000000000000081526004016104bc90611276565b60405180910390fd5b6000600960006101000a81548160ff0219169083151502179055507f4b5bb8486f992c5252b41928b6376dcb9e0d60cd43dad006b58c5f59794ee90d6002800160009054906101000a900473ffffffffffffffffffffffffffffffffffffffff1660026001015460405161053a929190611296565b60405180910390a1600260008082016000905560018201600090556002820160006101000a81549073ffffffffffffffffffffffffffffffffffffffff0219169055600382016000905560048201600090555050565b610598610ff1565b600960009054906101000a900460ff166105e7576040517f08c379a00000000000000000000000000000000000000000000000000000000081526004016105de9061130b565b60405180910390fd5b600260060160003373ffffffffffffffffffffffffffffffffffffffff1673ffffffffffffffffffffffffffffffffffffffff16815260200190815260200160002054600260050160003373ffffffffffffffffffffffffffffffffffffffff1673ffffffffffffffffffffffffffffffffffffffff16815260200190815260200160002054116106ad576040517f08c379a00000000000000000000000000000000000000000000000000000000081526004016106a49061139d565b60405180910390fd5b600260060160003373ffffffffffffffffffffffffffffffffffffffff1673ffffffffffffffffffffffffffffffffffffffff1681526020019081526020016000206000815480929190610700906113ec565b91905055506002600401600081548092919061071b906113ec565b91905055506002600101548111156107b45780600260010181905550336002800160006101000a81548173ffffffffffffffffffffffffffffffffffffffff021916908373ffffffffffffffffffffffffffffffffffffffff1602179055507fe265ae360c48dc3c258727b698cc5a994da69b0d32354166f39003a48891944333826040516107ab929190611296565b60405180910390a15b7fa578df9b0453d14d7ed8615ee0e9d58f70e041e91fc5865e3b71f81ea05296c033826040516107e5929190611296565b60405180910390a16107f5611037565b50565b66470de4df82000081565b61080b610ff1565b600960009054906101000a900460ff1661085a576040517f08c379a00000000000000000000000000000000000000000000000000000000081526004016108519061130b565b60405180910390fd5b61038460026000015461086d9190611434565b421015806108845750600260030154600260040154145b6108c3576040517f08c379a00000000000000000000000000000000000000000000000000000000081526004016108ba906114b4565b60405180910390fd5b6002800160009054906101000a900473ffffffffffffffffffffffffffffffffffffffff1673ffffffffffffffffffffffffffffffffffffffff163373ffffffffffffffffffffffffffffffffffffffff1614610955576040517f08c379a000000000000000000000000000000000000000000000000000000000815260040161094c90611546565b60405180910390fd5b6000600960006101000a81548160ff02191690831515021790555060006002800160009054906101000a900473ffffffffffffffffffffffffffffffffffffffff169050600060026001015490508173ffffffffffffffffffffffffffffffffffffffff166108fc66470de4df8200009081150290604051600060405180830381858888f193505050501580156109f0573d6000803e3d6000fd5b507f6f45a19e8850c727d0de9f32e0d8691324a9a74ffb4347652e6404138b1d81658282604051610a22929190611296565b60405180910390a1600260008082016000905560018201600090556002820160006101000a81549073ffffffffffffffffffffffffffffffffffffffff02191690556003820160009055600482016000905550505050610a80611037565b565b610a8a610ff1565b600960009054906101000a900460ff16610ad9576040517f08c379a0000000000000000000000000000000000000000000000000000000008152600401610ad09061130b565b60405180910390fd5b662386f26fc100003414610b22576040517f08c379a0000000000000000000000000000000000000000000000000000000008152600401610b19906115b2565b60405180910390fd5b600360026003015410610b6a576040517f08c379a0000000000000000000000000000000000000000000000000000000008152600401610b619061161e565b60405180910390fd5b610384600260000154610b7d9190611434565b4210610bbe576040517f08c379a0000000000000000000000000000000000000000000000000000000008152600401610bb59061168a565b60405180910390fd5b60026003016000815480929190610bd4906113ec565b9190505550600260050160003373ffffffffffffffffffffffffffffffffffffffff1673ffffffffffffffffffffffffffffffffffffffff1681526020019081526020016000206000815480929190610c2c906113ec565b91905055507f31e760aa525306aba638a784082a013b6a1cc0a9a1789f3f22281c0453b10b1f33604051610c609190611147565b60405180910390a1610c70611037565b565b610c7a610ff1565b600960009054906101000a900460ff1615610cca576040517f08c379a0000000000000000000000000000000000000000000000000000000008152600401610cc1906116f6565b60405180910390fd5b662386f26fc100003414610d13576040517f08c379a0000000000000000000000000000000000000000000000000000000008152600401610d0a906115b2565b60405180910390fd5b6001600960006101000a81548160ff02191690831515021790555042600260000181905550600160026003018190555060006002600401819055506001600260050160003373ffffffffffffffffffffffffffffffffffffffff1673ffffffffffffffffffffffffffffffffffffffff168152602001908152602001600020819055507f50ad08f58a27f2851d7e3a1b3a6a46b290f2ce677e99642d30ff639721e77790600260000154604051610dca9190611062565b60405180910390a17f31e760aa525306aba638a784082a013b6a1cc0a9a1789f3f22281c0453b10b1f33604051610e019190611147565b60405180910390a1610e11611037565b565b610e1b610ea4565b600073ffffffffffffffffffffffffffffffffffffffff168173ffffffffffffffffffffffffffffffffffffffff1603610e8d5760006040517f1e4fbdf7000000000000000000000000000000000000000000000000000000008152600401610e849190611147565b60405180910390fd5b610e9681610f2b565b50565b662386f26fc1000081565b610eac611041565b73ffffffffffffffffffffffffffffffffffffffff16610eca6103ee565b73ffffffffffffffffffffffffffffffffffffffff1614610f2957610eed611041565b6040517f118cdaa7000000000000000000000000000000000000000000000000000000008152600401610f209190611147565b60405180910390fd5b565b6000600160009054906101000a900473ffffffffffffffffffffffffffffffffffffffff16905081600160006101000a81548173ffffffffffffffffffffffffffffffffffffffff021916908373ffffffffffffffffffffffffffffffffffffffff1602179055508173ffffffffffffffffffffffffffffffffffffffff168173ffffffffffffffffffffffffffffffffffffffff167f8be0079c531659141344cd1fd0a4f28419497f9722a3daafe3b4186f6b6457e060405160405180910390a35050565b60026000540361102d576040517f3ee5aeb500000000000000000000000000000000000000000000000000000000815260040160405180910390fd5b6002600081905550565b6001600081905550565b600033905090565b6000819050919050565b61105c81611049565b82525050565b60006020820190506110776000830184611053565b92915050565b600073ffffffffffffffffffffffffffffffffffffffff82169050919050565b60006110a88261107d565b9050919050565b6110b88161109d565b82525050565b600060a0820190506110d36000830188611053565b6110e06020830187611053565b6110ed60408301866110af565b6110fa6060830185611053565b6111076080830184611053565b9695505050505050565b60008115159050919050565b61112681611111565b82525050565b6000602082019050611141600083018461111d565b92915050565b600060208201905061115c60008301846110af565b92915050565b600080fd5b61117081611049565b811461117b57600080fd5b50565b60008135905061118d81611167565b92915050565b6000602082840312156111a9576111a8611162565b5b60006111b78482850161117e565b91505092915050565b6111c98161109d565b81146111d457600080fd5b50565b6000813590506111e6816111c0565b92915050565b60006020828403121561120257611201611162565b5b6000611210848285016111d7565b91505092915050565b600082825260208201905092915050565b7f4e6f20616374697665206576656e7420746f20636c6f73650000000000000000600082015250565b6000611260601883611219565b915061126b8261122a565b602082019050919050565b6000602082019050818103600083015261128f81611253565b9050919050565b60006040820190506112ab60008301856110af565b6112b86020830184611053565b9392505050565b7f4e6f20616374697665206576656e740000000000000000000000000000000000600082015250565b60006112f5600f83611219565b9150611300826112bf565b602082019050919050565b60006020820190508181036000830152611324816112e8565b9050919050565b7f4e6f206d6f72652073636f72657320746f207375626d697420666f722074686960008201527f7320656e74727900000000000000000000000000000000000000000000000000602082015250565b6000611387602783611219565b91506113928261132b565b604082019050919050565b600060208201905081810360008301526113b68161137a565b9050919050565b7f4e487b7100000000000000000000000000000000000000000000000000000000600052601160045260246000fd5b60006113f782611049565b91507fffffffffffffffffffffffffffffffffffffffffffffffffffffffffffffffff8203611429576114286113bd565b5b600182019050919050565b600061143f82611049565b915061144a83611049565b9250828201905080821115611462576114616113bd565b5b92915050565b7f4576656e74206e6f7420726561647920746f20656e6400000000000000000000600082015250565b600061149e601683611219565b91506114a982611468565b602082019050919050565b600060208201905081810360008301526114cd81611491565b9050919050565b7f4f6e6c7920686967686573742073636f7265722063616e20656e64207468652060008201527f6576656e74000000000000000000000000000000000000000000000000000000602082015250565b6000611530602583611219565b915061153b826114d4565b604082019050919050565b6000602082019050818103600083015261155f81611523565b9050919050565b7f496e636f727265637420656e7472792066656500000000000000000000000000600082015250565b600061159c601383611219565b91506115a782611566565b602082019050919050565b600060208201905081810360008301526115cb8161158f565b9050919050565b7f4576656e742069732066756c6c00000000000000000000000000000000000000600082015250565b6000611608600d83611219565b9150611613826115d2565b602082019050919050565b60006020820190508181036000830152611637816115fb565b9050919050565b7f4576656e742068617320656e6465640000000000000000000000000000000000600082015250565b6000611674600f83611219565b915061167f8261163e565b602082019050919050565b600060208201905081810360008301526116a381611667565b9050919050565b7f416e206576656e7420697320616c726561647920616374697665000000000000600082015250565b60006116e0601a83611219565b91506116eb826116aa565b602082019050919050565b6000602082019050818103600083015261170f816116d3565b905091905056fea2646970667358221220904d75d26a37e63046ac516f81ee3a01474dadbba6fb2be08f9892012e75484764736f6c634300081a0033",
  "linkReferences": {},
  "deployedLinkReferences": {}
}