{
  "_format": "hh-sol-artifact-1",
  "contractName": "DragoGame",
  "sourceName": "contracts/DragoGame.sol",
  "abi": [
    {
      "inputs": [],
      "stateMutability": "nonpayable",
      "type": "constructor"
    },
    {
      "inputs": [
        {
          "internalType": "address",
          "name": "owner",
          "type": "address"
        }
      ],
      "name": "OwnableInvalidOwner",
      "type": "error"
    },
    {
      "inputs": [
        {
          "internalType": "address",
          "name": "account",
          "type": "address"
        }
      ],
      "name": "OwnableUnauthorizedAccount",
      "type": "error"
    },
    {
      "inputs": [],
      "name": "ReentrancyGuardReentrantCall",
      "type": "error"
    },
    {
      "anonymous": false,
      "inputs": [
        {
          "indexed": false,
          "internalType": "address",
          "name": "winner",
          "type": "address"
        },
        {
          "indexed": false,
          "internalType": "uint256",
          "name": "winningScore",
          "type": "uint256"
        }
      ],
      "name": "EventEnded",
      "type": "event"
    },
    {
      "anonymous": false,
      "inputs": [
        {
          "indexed": false,
          "internalType": "uint256",
          "name": "startTime",
          "type": "uint256"
        }
      ],
      "name": "GameStarted",
      "type": "event"
    },
    {
      "anonymous": false,
      "inputs": [
        {
          "indexed": false,
          "internalType": "address",
          "name": "player",
          "type": "address"
        },
        {
          "indexed": false,
          "internalType": "uint256",
          "name": "score",
          "type": "uint256"
        }
      ],
      "name": "NewHighScore",
      "type": "event"
    },
    {
      "anonymous": false,
      "inputs": [
        {
          "indexed": true,
          "internalType": "address",
          "name": "previousOwner",
          "type": "address"
        },
        {
          "indexed": true,
          "internalType": "address",
          "name": "newOwner",
          "type": "address"
        }
      ],
      "name": "OwnershipTransferred",
      "type": "event"
    },
    {
      "anonymous": false,
      "inputs": [
        {
          "indexed": false,
          "internalType": "address",
          "name": "player",
          "type": "address"
        }
      ],
      "name": "PlayerJoined",
      "type": "event"
    },
    {
      "inputs": [],
      "name": "ENTRY_FEE",
      "outputs": [
        {
          "internalType": "uint256",
          "name": "",
          "type": "uint256"
        }
      ],
      "stateMutability": "view",
      "type": "function"
    },
    {
      "inputs": [],
      "name": "EVENT_DURATION",
      "outputs": [
        {
          "internalType": "uint256",
          "name": "",
          "type": "uint256"
        }
      ],
      "stateMutability": "view",
      "type": "function"
    },
    {
      "inputs": [],
      "name": "MAX_PLAYERS",
      "outputs": [
        {
          "internalType": "uint256",
          "name": "",
          "type": "uint256"
        }
      ],
      "stateMutability": "view",
      "type": "function"
    },
    {
      "inputs": [],
      "name": "PRIZE",
      "outputs": [
        {
          "internalType": "uint256",
          "name": "",
          "type": "uint256"
        }
      ],
      "stateMutability": "view",
      "type": "function"
    },
    {
      "inputs": [],
      "name": "currentEvent",
      "outputs": [
        {
          "internalType": "uint256",
          "name": "startTime",
          "type": "uint256"
        },
        {
          "internalType": "uint256",
          "name": "highestScore",
          "type": "uint256"
        },
        {
          "internalType": "address",
          "name": "highestScorer",
          "type": "address"
        },
        {
          "internalType": "uint256",
          "name": "playerCount",
          "type": "uint256"
        },
        {
          "internalType": "uint256",
          "name": "submittedScores",
          "type": "uint256"
        }
      ],
      "stateMutability": "view",
      "type": "function"
    },
    {
      "inputs": [],
      "name": "endEventAndClaimPrize",
      "outputs": [],
      "stateMutability": "nonpayable",
      "type": "function"
    },
    {
      "inputs": [],
      "name": "eventActive",
      "outputs": [
        {
          "internalType": "bool",
          "name": "",
          "type": "bool"
        }
      ],
      "stateMutability": "view",
      "type": "function"
    },
    {
      "inputs": [],
      "name": "getCurrentEventDetails",
      "outputs": [
        {
          "internalType": "uint256",
          "name": "startTime",
          "type": "uint256"
        },
        {
          "internalType": "uint256",
          "name": "highestScore",
          "type": "uint256"
        },
        {
          "internalType": "address",
          "name": "highestScorer",
          "type": "address"
        },
        {
          "internalType": "uint256",
          "name": "playerCount",
          "type": "uint256"
        },
        {
          "internalType": "uint256",
          "name": "submittedScores",
          "type": "uint256"
        }
      ],
      "stateMutability": "view",
      "type": "function"
    },
    {
      "inputs": [],
      "name": "joinGame",
      "outputs": [],
      "stateMutability": "payable",
      "type": "function"
    },
    {
      "inputs": [],
      "name": "owner",
      "outputs": [
        {
          "internalType": "address",
          "name": "",
          "type": "address"
        }
      ],
      "stateMutability": "view",
      "type": "function"
    },
    {
      "inputs": [],
      "name": "renounceOwnership",
      "outputs": [],
      "stateMutability": "nonpayable",
      "type": "function"
    },
    {
      "inputs": [],
      "name": "startGame",
      "outputs": [],
      "stateMutability": "payable",
      "type": "function"
    },
    {
      "inputs": [
        {
          "internalType": "uint256",
          "name": "score",
          "type": "uint256"
        }
      ],
      "name": "submitScore",
      "outputs": [],
      "stateMutability": "nonpayable",
      "type": "function"
    },
    {
      "inputs": [
        {
          "internalType": "address",
          "name": "newOwner",
          "type": "address"
        }
      ],
      "name": "transferOwnership",
      "outputs": [],
      "stateMutability": "nonpayable",
      "type": "function"
    },
    {
      "inputs": [],
      "name": "withdrawFees",
      "outputs": [],
      "stateMutability": "nonpayable",
      "type": "function"
    }
  ],
  "bytecode": "0x608060405234801561001057600080fd5b50336001600081905550600073ffffffffffffffffffffffffffffffffffffffff168173ffffffffffffffffffffffffffffffffffffffff160361008c5760006040517f1e4fbdf700000000000000000000000000000000000000000000000000000000815260040161008391906101a8565b60405180910390fd5b61009b816100a160201b60201c565b506101c3565b6000600160009054906101000a900473ffffffffffffffffffffffffffffffffffffffff16905081600160006101000a81548173ffffffffffffffffffffffffffffffffffffffff021916908373ffffffffffffffffffffffffffffffffffffffff1602179055508173ffffffffffffffffffffffffffffffffffffffff168173ffffffffffffffffffffffffffffffffffffffff167f8be0079c531659141344cd1fd0a4f28419497f9722a3daafe3b4186f6b6457e060405160405180910390a35050565b600073ffffffffffffffffffffffffffffffffffffffff82169050919050565b600061019282610167565b9050919050565b6101a281610187565b82525050565b60006020820190506101bd6000830184610199565b92915050565b611591806101d26000396000f3fe6080604052600436106100e85760003560e01c8063934b61611161008a578063d4f77b1c11610059578063d4f77b1c14610290578063d65ab5f21461029a578063f2fde38b146102a4578063f6d361cc146102cd576100e8565b8063934b6161146101f6578063aff0b29714610225578063c05390f61461024e578063d1b2fae814610279576100e8565b806350750f25116100c657806350750f251461015a578063715018a614610189578063831e6ed4146101a05780638da5cb5b146101cb576100e8565b80634315990b146100ed5780634411b3eb14610118578063476343ee14610143575b600080fd5b3480156100f957600080fd5b506101026102f8565b60405161010f9190610f39565b60405180910390f35b34801561012457600080fd5b5061012d6102fe565b60405161013a9190610f39565b60405180910390f35b34801561014f57600080fd5b50610158610303565b005b34801561016657600080fd5b5061016f610361565b604051610180959493929190610f95565b60405180910390f35b34801561019557600080fd5b5061019e6103a5565b005b3480156101ac57600080fd5b506101b56103b9565b6040516101c29190611003565b60405180910390f35b3480156101d757600080fd5b506101e06103cc565b6040516101ed919061101e565b60405180910390f35b34801561020257600080fd5b5061020b6103f6565b60405161021c959493929190610f95565b60405180910390f35b34801561023157600080fd5b5061024c6004803603810190610247919061106a565b61044c565b005b34801561025a57600080fd5b506102636106cf565b6040516102709190610f39565b60405180910390f35b34801561028557600080fd5b5061028e6106da565b005b610298610959565b005b6102a2610b49565b005b3480156102b057600080fd5b506102cb60048036038101906102c691906110c3565b610cea565b005b3480156102d957600080fd5b506102e2610d70565b6040516102ef9190610f39565b60405180910390f35b61038481565b600381565b61030b610d7b565b60004790506103186103cc565b73ffffffffffffffffffffffffffffffffffffffff166108fc829081150290604051600060405180830381858888f1935050505015801561035d573d6000803e3d6000fd5b5050565b60028060000154908060010154908060020160009054906101000a900473ffffffffffffffffffffffffffffffffffffffff16908060030154908060040154905085565b6103ad610d7b565b6103b76000610e02565b565b600960009054906101000a900460ff1681565b6000600160009054906101000a900473ffffffffffffffffffffffffffffffffffffffff16905090565b60008060008060006002600001546002600101546002800160009054906101000a900473ffffffffffffffffffffffffffffffffffffffff16600260030154600260040154945094509450945094509091929394565b610454610ec8565b600960009054906101000a900460ff166104a3576040517f08c379a000000000000000000000000000000000000000000000000000000000815260040161049a9061114d565b60405180910390fd5b600260060160003373ffffffffffffffffffffffffffffffffffffffff1673ffffffffffffffffffffffffffffffffffffffff16815260200190815260200160002054600260050160003373ffffffffffffffffffffffffffffffffffffffff1673ffffffffffffffffffffffffffffffffffffffff1681526020019081526020016000205411610569576040517f08c379a0000000000000000000000000000000000000000000000000000000008152600401610560906111b9565b60405180910390fd5b61038460026000015461057c9190611208565b42106105bd576040517f08c379a00000000000000000000000000000000000000000000000000000000081526004016105b490611288565b60405180910390fd5b600260060160003373ffffffffffffffffffffffffffffffffffffffff1673ffffffffffffffffffffffffffffffffffffffff1681526020019081526020016000206000815480929190610610906112a8565b91905055506002600401600081548092919061062b906112a8565b91905055506002600101548111156106c45780600260010181905550336002800160006101000a81548173ffffffffffffffffffffffffffffffffffffffff021916908373ffffffffffffffffffffffffffffffffffffffff1602179055507fe265ae360c48dc3c258727b698cc5a994da69b0d32354166f39003a48891944333826040516106bb9291906112f0565b60405180910390a15b6106cc610f0e565b50565b66470de4df82000081565b6106e2610ec8565b600960009054906101000a900460ff16610731576040517f08c379a00000000000000000000000000000000000000000000000000000000081526004016107289061114d565b60405180910390fd5b6103846002600001546107449190611208565b4210158061075b5750600260030154600260040154145b61079a576040517f08c379a000000000000000000000000000000000000000000000000000000000815260040161079190611365565b60405180910390fd5b6002800160009054906101000a900473ffffffffffffffffffffffffffffffffffffffff1673ffffffffffffffffffffffffffffffffffffffff163373ffffffffffffffffffffffffffffffffffffffff161461082c576040517f08c379a0000000000000000000000000000000000000000000000000000000008152600401610823906113f7565b60405180910390fd5b6000600960006101000a81548160ff02191690831515021790555060006002800160009054906101000a900473ffffffffffffffffffffffffffffffffffffffff169050600060026001015490508173ffffffffffffffffffffffffffffffffffffffff166108fc66470de4df8200009081150290604051600060405180830381858888f193505050501580156108c7573d6000803e3d6000fd5b507f6f45a19e8850c727d0de9f32e0d8691324a9a74ffb4347652e6404138b1d816582826040516108f99291906112f0565b60405180910390a1600260008082016000905560018201600090556002820160006101000a81549073ffffffffffffffffffffffffffffffffffffffff02191690556003820160009055600482016000905550505050610957610f0e565b565b610961610ec8565b600960009054906101000a900460ff166109b0576040517f08c379a00000000000000000000000000000000000000000000000000000000081526004016109a79061114d565b60405180910390fd5b662386f26fc1000034146109f9576040517f08c379a00000000000000000000000000000000000000000000000000000000081526004016109f090611463565b60405180910390fd5b600360026003015410610a41576040517f08c379a0000000000000000000000000000000000000000000000000000000008152600401610a38906114cf565b60405180910390fd5b610384600260000154610a549190611208565b4210610a95576040517f08c379a0000000000000000000000000000000000000000000000000000000008152600401610a8c90611288565b60405180910390fd5b60026003016000815480929190610aab906112a8565b9190505550600260050160003373ffffffffffffffffffffffffffffffffffffffff1673ffffffffffffffffffffffffffffffffffffffff1681526020019081526020016000206000815480929190610b03906112a8565b91905055507f31e760aa525306aba638a784082a013b6a1cc0a9a1789f3f22281c0453b10b1f33604051610b37919061101e565b60405180910390a1610b47610f0e565b565b610b51610ec8565b600960009054906101000a900460ff1615610ba1576040517f08c379a0000000000000000000000000000000000000000000000000000000008152600401610b989061153b565b60405180910390fd5b662386f26fc100003414610bea576040517f08c379a0000000000000000000000000000000000000000000000000000000008152600401610be190611463565b60405180910390fd5b6001600960006101000a81548160ff02191690831515021790555042600260000181905550600160026003018190555060006002600401819055506001600260050160003373ffffffffffffffffffffffffffffffffffffffff1673ffffffffffffffffffffffffffffffffffffffff168152602001908152602001600020819055507f50ad08f58a27f2851d7e3a1b3a6a46b290f2ce677e99642d30ff639721e77790600260000154604051610ca19190610f39565b60405180910390a17f31e760aa525306aba638a784082a013b6a1cc0a9a1789f3f22281c0453b10b1f33604051610cd8919061101e565b60405180910390a1610ce8610f0e565b565b610cf2610d7b565b600073ffffffffffffffffffffffffffffffffffffffff168173ffffffffffffffffffffffffffffffffffffffff1603610d645760006040517f1e4fbdf7000000000000000000000000000000000000000000000000000000008152600401610d5b919061101e565b60405180910390fd5b610d6d81610e02565b50565b662386f26fc1000081565b610d83610f18565b73ffffffffffffffffffffffffffffffffffffffff16610da16103cc565b73ffffffffffffffffffffffffffffffffffffffff1614610e0057610dc4610f18565b6040517f118cdaa7000000000000000000000000000000000000000000000000000000008152600401610df7919061101e565b60405180910390fd5b565b6000600160009054906101000a900473ffffffffffffffffffffffffffffffffffffffff16905081600160006101000a81548173ffffffffffffffffffffffffffffffffffffffff021916908373ffffffffffffffffffffffffffffffffffffffff1602179055508173ffffffffffffffffffffffffffffffffffffffff168173ffffffffffffffffffffffffffffffffffffffff167f8be0079c531659141344cd1fd0a4f28419497f9722a3daafe3b4186f6b6457e060405160405180910390a35050565b600260005403610f04576040517f3ee5aeb500000000000000000000000000000000000000000000000000000000815260040160405180910390fd5b6002600081905550565b6001600081905550565b600033905090565b6000819050919050565b610f3381610f20565b82525050565b6000602082019050610f4e6000830184610f2a565b92915050565b600073ffffffffffffffffffffffffffffffffffffffff82169050919050565b6000610f7f82610f54565b9050919050565b610f8f81610f74565b82525050565b600060a082019050610faa6000830188610f2a565b610fb76020830187610f2a565b610fc46040830186610f86565b610fd16060830185610f2a565b610fde6080830184610f2a565b9695505050505050565b60008115159050919050565b610ffd81610fe8565b82525050565b60006020820190506110186000830184610ff4565b92915050565b60006020820190506110336000830184610f86565b92915050565b600080fd5b61104781610f20565b811461105257600080fd5b50565b6000813590506110648161103e565b92915050565b6000602082840312156110805761107f611039565b5b600061108e84828501611055565b91505092915050565b6110a081610f74565b81146110ab57600080fd5b50565b6000813590506110bd81611097565b92915050565b6000602082840312156110d9576110d8611039565b5b60006110e7848285016110ae565b91505092915050565b600082825260208201905092915050565b7f4e6f20616374697665206576656e740000000000000000000000000000000000600082015250565b6000611137600f836110f0565b915061114282611101565b602082019050919050565b600060208201905081810360008301526111668161112a565b9050919050565b7f4e6f206d6f72652073636f72657320746f207375626d69740000000000000000600082015250565b60006111a36018836110f0565b91506111ae8261116d565b602082019050919050565b600060208201905081810360008301526111d281611196565b9050919050565b7f4e487b7100000000000000000000000000000000000000000000000000000000600052601160045260246000fd5b600061121382610f20565b915061121e83610f20565b9250828201905080821115611236576112356111d9565b5b92915050565b7f4576656e742068617320656e6465640000000000000000000000000000000000600082015250565b6000611272600f836110f0565b915061127d8261123c565b602082019050919050565b600060208201905081810360008301526112a181611265565b9050919050565b60006112b382610f20565b91507fffffffffffffffffffffffffffffffffffffffffffffffffffffffffffffffff82036112e5576112e46111d9565b5b600182019050919050565b60006040820190506113056000830185610f86565b6113126020830184610f2a565b9392505050565b7f4576656e74206e6f7420726561647920746f20656e6400000000000000000000600082015250565b600061134f6016836110f0565b915061135a82611319565b602082019050919050565b6000602082019050818103600083015261137e81611342565b9050919050565b7f4f6e6c7920686967686573742073636f7265722063616e20656e64207468652060008201527f6576656e74000000000000000000000000000000000000000000000000000000602082015250565b60006113e16025836110f0565b91506113ec82611385565b604082019050919050565b60006020820190508181036000830152611410816113d4565b9050919050565b7f496e636f727265637420656e7472792066656500000000000000000000000000600082015250565b600061144d6013836110f0565b915061145882611417565b602082019050919050565b6000602082019050818103600083015261147c81611440565b9050919050565b7f4576656e742069732066756c6c00000000000000000000000000000000000000600082015250565b60006114b9600d836110f0565b91506114c482611483565b602082019050919050565b600060208201905081810360008301526114e8816114ac565b9050919050565b7f416e206576656e7420697320616c726561647920616374697665000000000000600082015250565b6000611525601a836110f0565b9150611530826114ef565b602082019050919050565b6000602082019050818103600083015261155481611518565b905091905056fea26469706673582212201e3a799c956c7ec61738e91f65bfb5ea9900dec283458f4dd77872bb89bd4a5f64736f6c634300081a0033",
  "linkReferences": {},
  "deployedLinkReferences": {}
}